:020000040800F2
:10000000A02100204D320008553200085732000868
:10001000593200085B3200085D3200080000000021
:100020000000000000000000000000005F32000837
:1000300061320008000000006332000865320008E9
:10004000673200086732000867320008673200082C
:10005000673200086732000867320008673200081C
:10006000673200086732000867320008673200080C
:1000700067320008673200086732000867320008FC
:1000800067320008673200086732000867320008EC
:1000900067320008673200086732000867320008DC
:1000A00067320008673200086732000867320008CC
:1000B00067320008673200086732000867320008BC
:1000C00067320008673200086732000867320008AC
:1000D00067320008FB2D000867320008673200080D
:1000E00067320008673200086732000800F002F843
:1000F00000F05AF80AA090E8000C82448344AAF168
:100100000107DA4501D100F04FF8AFF2090EBAE865
:100110000F0013F0010F18BFFB1A43F0010318473B
:100120000CEB00002CEB00000A444FF0000C10F820
:10013000013B13F0070408BF10F8014B1D1108BF65
:1001400010F8015B641E05D010F8016B641E01F805
:10015000016BF9D113F0080F1EBF10F8014BAD1C55
:100160000C1B09D16D1E58BF01F801CBFAD505E073
:1001700014F8016B01F8016B6D1EF9D59142D6D3CD
:10018000704700000023002400250026103A28BFF5
:1001900078C1FBD8520728BF30C148BF0B607047F9
:1001A0001FB51FBD10B510BD0AF05AFD1146FFF76F
:1001B000F7FF00F0F5FB0AF078FD03B4FFF7F2FF5C
:1001C00003BC02F0BFFD0000F0B591B0054600266B
:1001D000294608A806F023F8044640F2FF100790CD
:1001E000079802F08DFA069004BB0698F0B11BE068
:1001F000694608A806F062F8044614B99DF809009B
:1002000000B912E00698007808B1069801E00DF1F7
:1002100009000746384607F038FA044604F0F000B3
:10022000502801D1701C86B2E2E700BF304611B001
:10023000F0BD2DE9F04F95B04FF000094FF4784034
:10024000FE49088018E0FEA010210B46C822CDE927
:10025000001032213C2001F0DEFDC82001F02AF917
:100260004FF6FF704223F022322100903C2000F034
:1002700011FCC82001F01EF907F07EFC0028E2D135
:100280001021F2A20B46CDE900210290C8223221B2
:100290003C2007F08EFD00201021F1A20B46CDE995
:1002A00000210290C82246213C2007F082FD002058
:1002B0001021EFA20B46CDE900210290C8225A215D
:1002C0003C2007F076FD00201021EEA20B46CDE980
:1002D00000210290C8226E213C2007F06AFD002018
:1002E0001021EBA20B46CDE900210290C822822109
:1002F0003C2007F05EFD00201021EAA20B46CDE96C
:1003000000210290C82296213C2007F052FD1AE0FD
:1003100000201021E7A20B46CDE900210290F02237
:10032000AA213C2007F045FDC82001F0C3F84FF694
:10033000FF70BA23F022AA2100903C2000F0AAFB13
:10034000C82001F0B7F8E0A10CA805F068FF00286C
:10035000DED1DDA0FFF738FF06461AE000201021AD
:10036000DCA20B46CDE900210290F022AA213C201C
:1003700007F01FFDC82001F09DF84FF6FF70BA236B
:10038000F022AA2100903C2000F084FBC82001F05C
:1003900091F8002EE2D040F2FF100B900B9802F083
:1003A000AFF90A900B9802F0ABF98046700002F0AA
:1003B000A7F907461AE000201021CAA20B46CDE992
:1003C00000210290F022AA213C2007F0F2FCC82074
:1003D00001F070F84FF6FF70BA23F022AA210090C6
:1003E0003C2000F057FBC82001F064F80A98002870
:1003F000E1D0B8F1000FDED0002FDCD0B2A10CA804
:1004000005F00DFF05461DBB00241FE0BDF836B00A
:1004100004A90CA805F052FF054615B99DF819006E
:1004200000B914E00A98007808B10A9801E00DF1CB
:1004300019000390039807F028F9054605F0F0002D
:10044000502803D127F814B0601C84B2DEE700BF47
:1004500000201021A7A20B46CDE900210290F02236
:10046000AA213C2007F0A5FC40F2DC5001F022F864
:100470000AF024FA002494A10CA805F0D0FE054649
:1004800088E037F814100CA804F021FA04A90CA88D
:1004900005F014FF054615B99DF8190000B97CE078
:1004A0000A98007808B10A9801E00DF1190003904C
:1004B00093A140460AF03DFB404603990AF07CFBBD
:1004C000002001F075FA012190484088CDE9000133
:1004D0008E4803880022114640460AF0B9FA0120EE
:1004E00010210B46F022CDE900810290022108463E
:1004F00007F05FFC4FF0000A49E0002001F050F9DE
:1005000083490870BAF1FA0F01DD01200870142048
:100510009AFBF0F100FB11A038B97E48006808B9D9
:10052000012000E000207B4908607948007802281B
:1005300006D114B1601E84B201E0701E84B227E0BF
:1005400073480078012805D1601C84B2B44200DBF6
:1005500000241DE06E48007803280ED1B9F1000F89
:1005600001D1012000E000208146B9F1000F01D146
:10057000012000E0002068490860B9F1000F03D1B4
:100580000AF1010000F0FF0A0A2000F093FFB4E72F
:1005900000BF0025002D3FF474AF00BF0A9802F0A1
:1005A000A3F8404602F0A0F8384602F09DF815B0D6
:1005B000BDE8F08F1CB51420584908700820487019
:1005C000132088700320C870132008710020487120
:1005D00050208871084602F0BCFD39E14F4802F016
:1005E00082FD1020012302221E210090002000F035
:1005F0008EFC1020012300221E210090142000F008
:1006000086FC1020009045480078021101231E212D
:10061000282000F07CFC102000904048007800F07A
:100620000F0201231E213C2000F071FC3CA0102190
:100630000B46C822CDE900101E2173E01E000020E9
:10064000466F6E74204572726F7221004D696E693B
:100650002053544D3332BFAAB7A2B0E500000000CA
:10066000CDBCC6ACCFD4CABEB3CCD0F20000000023
:100670004B4559303A4E455854204B4559313A5024
:1006800052455600574B5F55503A5041555345001F
:10069000D5FDB5E3D4ADD7D340414C49454E544583
:1006A0004B00000032303134C4EA33D4C23134C894
:1006B000D500000050494354555245CEC4BCFEBC41
:1006C000D0B4EDCEF3210000303A2F5049435455B9
:1006D00052450000C3BBD3D0CDBCC6ACCEC4BCFE1B
:1006E00021000000C4DAB4E6B7D6C5E4CAA7B0DC7E
:1006F00021000000BFAACABCCFD4CABE2E2E2E0035
:10070000303A2F504943545552452F00FC010020E8
:1007100000000020A8012142B081214246000020B3
:100720002D000000502001F076FB10200090B24810
:100730004078021101231E21642000F0E8FB102004
:100740000090AD48407800F00F0201231E21782070
:1007500000F0DDFBAFF2380010210B46C822CDE9D6
:1007600000101E218C2001F056FB10200090A248A2
:100770008078021101231E21A02000F0C8FB102068
:1007800000909D48807800F00F0201231E21B420C4
:1007900000F0BDFB10200090974800790211012362
:1007A0003221002000F0B3FB102000909248007925
:1007B00000F00F0201233221142000F0A8FB8FA0CB
:1007C00010210B46C822CDE900103221282001F06B
:1007D00022FB102000908848407902110123322129
:1007E0003C2000F094FB102000908348407900F0FA
:1007F0000F0201233221502000F089FB7FA010213D
:100800000B46C822CDE900103221642001F003FB21
:10081000102000907848807902110123322178203D
:1008200000F075FB102000907348807900F00F02F3
:10083000012332218C2000F06AFB102000906E48CA
:10084000C07800F0070201234621002000F05FFB82
:10085000C4E60EB54FF4784069490880002069A3CA
:100860001022322100903C2000F00BFB002068A3F6
:100870001022462100903C2000F003FB002068A3DA
:1008800010225A2100903C2000F0FBFA002068A3BF
:1008900010226E2100903C2000F0F3FA16E00020B8
:1008A00066A31022822100903C2000F0EAFAC820C2
:1008B00000F000FE4FF6FF709223EF22822100909D
:1008C0003C2000F0E7F8C82000F0F4FD02F0CBF97E
:1008D0000028E4D15DA31022822100903C2000F08A
:1008E000D0FA1F204649088000205BA310229621E1
:1008F00000903C2000F0C5FA51E00A2095FBF0F191
:1009000000FB1150D8BB02F0CFF90446002C10DADE
:10091000002010212D22CDE90021029051480388AA
:10092000374802889621642000F021FA604204B220
:100930000DE0002010212022CDE90021029049483D
:1009400003882F4802889621642000F010FA0A20BC
:1009500094FBF0F6102002233246962100906C2082
:1009600000F0D5FA0A2094FBF0F100FB11461020AC
:100970000123324696210090842000F0C8FA0A2014
:1009800000F098FD681CC5B2142D08D1002536482A
:10099000006808B9012000E0002033490860ACE796
:1009A00010B54FF4A06002F071FC00F02EFE48205C
:1009B00000F066FD01F07FF800F0A8FE01202A4952
:1009C00008602A49C1F8B00102F01FFC01F0E2FE04
:1009D00001F00DFE06F01AFE25490122086825A146
:1009E00004F0A9FF22490122486823A104F0A3FFD3
:1009F000FFF71FFC002010BD460000203A00000059
:100A00001E0000204D696E692053544D33320000A2
:100A100044533138423230205445535400000000D2
:100A200041544F4D40414C49454E54454B00000008
:100A3000323031342F332F313200000044533138FB
:100A4000423230204572726F7200000044533138D8
:100A5000423230204F4B000054656D703A20202008
:100A60002E20430020000020A801214200802142C6
:100A7000C0010020303A0000313A000070B5054650
:100A80000E4614463146284600F02BFF204600F063
:100A9000FDFE70BD2DE9F84F06460F4614461D4673
:100AA000DDF82880A01B401C1FFA80FBE81B401CBF
:100AB00080B20090681E83B2601E82B23946304612
:100AC00000F04FFF4FF48050F84908600011091DF5
:100AD00008604FF000091FE04FF0000A16E0F448EC
:100AE000C0F800800120F149091D0860091F086055
:100AF0004FEA0820EE4908600120EC49091D086012
:100B0000091F08600AF101001FFA80FADA45E6DBE6
:100B100009F101001FFA80F900988145DCDB4FF4F0
:100B20008070E2490860E3484088401E83B2E14893
:100B30000088401E82B20021084600F012FFBDE886
:100B4000F88F2DE9FF4F85B081468A46002004903A
:100B500003900798A0EB09050898A0EB0A06CDF8CA
:100B60000890CDF804A0002D01DD012705E00DB9A6
:100B7000002702E04FF0FF376D42002E02DD4FF0FC
:100B8000010806E016B94FF0000802E04FF0FF3808
:100B90007642B54201DD2C4600E034464FF0000BB2
:100BA00021E0019A91B2029A90B200F0B4FE04984A
:100BB000284404900398304403900498A04205DD33
:100BC0000498001B04900298384402900398A042B5
:100BD00005DD0398001B03900198404401900BF140
:100BE00001001FFA80FB601C8345DADD09B0BDE817
:100BF000F08F2DE9F04104460D4616461F462B4660
:100C0000324629462046FFF79CFF3B4622462946AE
:100C10002046FFF796FF3B46324639462046FFF70F
:100C200090FF3B46324629463046FFF78AFFBDE833
:100C3000F081F8B504460D4616461F469E480088CA
:100C40003B463246294600902046FFF723FFF8BD79
:100C50002DE9F04104460D4616461F46DDF8188082
:100C6000EA1991B2A21990B24246FFF707FFEA19BA
:100C700091B2A21B90B24246FFF700FFEA1B91B26D
:100C8000A21990B24246FFF7F9FEEA1B91B2A21BED
:100C900090B24246FFF7F2FEAA1991B2E21990B261
:100CA0004246FFF7EBFEAA1991B2E21B90B2424610
:100CB000FFF7E4FEAA1B91B2E21990B24246FFF799
:100CC000DDFEAA1B91B2E21B90B24246FFF7D6FEB0
:100CD000BDE8F0812DE9FF4F81B082461746984666
:100CE000DDF838B0002445464FEA4800C0F103065D
:100CF000BBF1000F1FD01BE0A14608E04B46224687
:100D0000009750460299FFF7A3FF09F10109A94591
:100D1000F4DD002E04DA042000FB0460861D06E0EA
:100D2000601B042101FB006000F10A066D1E641CBB
:100D3000AC42E1DD18E015E02B4622460097504614
:100D40000299FFF785FF002E04DA042000FB0460FF
:100D5000861D06E0601B042101FB006000F10A060D
:100D60006D1E641CAC42E7DD05B0BDE8F08F2DE9D7
:100D7000FF4F83B081468A469346DDE910644E48B2
:100D800000880290A6F12000C6B204EBD47009EBF3
:100D90006000401E82B20AEB0400401E83B251463E
:100DA0004846019400F0DDFD129850BB002525E077
:100DB0000C2C07D106EB4600404901EB800010F8EF
:100DC000058004E03E4800EB061010F8058000277F
:100DD0000DE008F0010018B1584600F057FD02E0A0
:100DE000069800F053FD4FEA6808781CC7B204EB80
:100DF000D471B7EB610FECDB681CC5B2A542D7DB41
:100E00002DE0002529E00C2C07D106EB46002B49EC
:100E100001EB800010F8058004E0294800EB061083
:100E200010F80580002711E02348A0F800B008F072
:100E3000010038B10AEB050291B209EB070290B24A
:100E400000F069FD4FEA6808781CC7B204EBD47162
:100E5000B7EB610FE8DB681CC5B2A542D3DB1649CE
:100E60000298088013484088401E83B211480088C9
:100E7000401E82B20021084600F073FD07B0BDE8B5
:100E8000F08F2DE9FE4306460F4615461C46DDF859
:100E9000288029E007480088401EB04204DB05484E
:100EA0004088401EB8420DDABDE8FE8310080140BC
:100EB0000C0C0140FC0100201E0000201EB60008A2
:100EC00092BA000820788DE82101FC480388FC488C
:100ED000028839463046FFF74AFF284605EBD071B5
:100EE00006EB61018EB2641C20787E2802DC20783B
:100EF0002028CFDA00BFD7E710B50246012000E076
:100F000050430B1EA1F10104E1B2F9D110BD2DE94E
:100F1000FF4F83B0074691461E46109C4FF0000AD3
:100F2000002543E0701B401EC1B20A20FFF7E4FF1A
:100F3000B9FBF0F00A21B0FBF1F201FB1208BAF1A3
:100F4000000F1BD1701EA84218DDB8F1000F13D19D
:100F500000202021A346CDE90014029004EBDB71B0
:100F6000491001FB057188B2D4490B88D4490A881D
:100F70000499FFF7FCFE17E04FF0010A002108F189
:100F80003000C0B2A346CDE90141009004EBDB7113
:100F9000491001FB057188B2C8490B88C8490A8805
:100FA0000499FFF7E4FE00BF681CC5B2B542B9DB87
:100FB00007B0BDE8F08F2DE9FC5F054688469146F5
:100FC0009A46DDF830B000952E20019000245FE0B5
:100FD00004EB0410BB4911F810009BF80010884284
:100FE00053D104EB0410B74901EB400040789BF863
:100FF0000110884249D108F10F0083B205F10F00BA
:1010000082B24146284600F0ACFC00263BE00027B7
:1010100034E00D9890B904EB0410AA4901EB4000AC
:10102000801C805D80213941084018B1484600F09D
:101030002DFC21E0504600F029FC1DE0A048A0F85E
:10104000009004EB04109F4901EB4000801C805D80
:1010500080213941084018B14146284600F05BFC28
:10106000681C85B20098281A102805D1009D08F147
:1010700001001FFA80F803E0781CC7B2082FC8DB14
:1010800000BF701CC6B2202EC1DB00BF601C84B242
:10109000019884429CDB8C484088401E83B28A4879
:1010A0000088401E82B20021084600F05AFCBDE8CC
:1010B000FC9F2DE9FC5F0546884691469A46DDF87F
:1010C00030B0009507200190002467E004EB840015
:1010D00000EB44107D4911F810009BF80010884285
:1010E00059D104EB840000EB4410784901EB400037
:1010F00040789BF8011088424DD108F1170083B267
:1011000005F1170082B24146284600F02AFC00266D
:101110003FE0002738E00D98A0B904EB840000EB15
:1011200044106A4901EB4000801C805D80213941F8
:10113000084018B1484600F0A9FB23E0504600F0F3
:10114000A5FB1FE05E48A0F8009004EB840000EBD4
:1011500044105E4901EB4000801C805D80213941D4
:10116000084018B14146284600F0D5FB681C85B2FE
:101170000098281A182805D1009D08F101001FFACF
:1011800080F803E0781CC7B2082FC4DB00BF701CD6
:10119000C6B2482EBDDB00BF601C84B201988442F9
:1011A00094DB49484088401E83B247480088401E6F
:1011B00082B20021084600F0D4FBBDE8FC9F2DE977
:1011C000FC5F0546884691469A46DDF830B00095AA
:1011D0000420019000245FE004EB84103C4911F8E6
:1011E00010009BF80010884253D104EB841038495A
:1011F00001EB400040789BF80110884249D108F18A
:101200001F0083B205F11F0082B24146284600F05C
:10121000A8FB00263BE0002734E00D9890B904EBD2
:1012200084102B4901EB4000801C805D80213941F6
:10123000084018B1484600F029FB21E0504600F074
:1012400025FB1DE01E48A0F8009004EB8410204907
:1012500001EB4000801C805D80213941084018B1BD
:101260004146284600F057FB681C85B20098281AB2
:10127000202805D1009D08F101001FFA80F803E045
:10128000781CC7B2082FC8DB00BF701CC6B2802E06
:10129000C1DB00BF601C84B2019884429CDB0A4819
:1012A0004088401E83B208480088401E82B2002158
:1012B000084600F056FBBDE8FC9F0000200000201F
:1012C0001E00002082C00008FC0100209EC600080D
:1012D000A4C800082DE9FF4F83B006468846914612
:1012E000DDE91147109DB2464FF0000B71E0BBF1F4
:1012F000000F40D104EBD471604A1288A2EB610167
:10130000B14204DB5D494988091B414502DA07B057
:10131000BDE8F08F2878802802DD4FF0010B58E0FF
:1013200028780D2806D108EB04001FFA80F85646ED
:101330006D1C1EE0102C0DDD102128788DE8830037
:101340004A4641463046069BFFF711FD06F108006C
:1013500086B20EE028788DE891004A464146304634
:10136000069BFFF704FD204604EBD07106EB6101FC
:101370008EB26D1C2DE041480088001BB04204DB9A
:101380003E484088001B404500DAC0E74FF0000BA4
:10139000202C08D1CDE900574A4641463046069BED
:1013A000FFF70DFF12E0182C08D1CDE900574A468F
:1013B00041463046069BFFF77CFE07E0CDE900572B
:1013C0004A4641463046069BFFF7F5FDAD1C3019F5
:1013D00086B2287800288AD100BF98E72DE9FF4F10
:1013E00083B004460F469046DDE9119A109D2846C9
:1013F00009F0C3FB86B221490988A1EBC60000EBC6
:10140000D071C1F34F0B04EB0B0188B28DE82006BD
:1014100042463946069BFFF75DFF07B0BDE8F08FF7
:101420002DE9F04706460F46154607F1270083B21F
:1014300006F1270082B23946304600F092FA0024C5
:101440000AE015F8149005EB440090F8018049EA91
:10145000082000F01BFA641CB4F5C86FF1DB0748E4
:101460004088401E83B205480088401E82B2002199
:10147000084600F076FABDE8F0870000FC01002085
:1014800010B504466FF0040001F04FFFE11704EBC4
:101490005171C1F3C701234A11701046007800EB67
:1014A0004001C1EBC0104FF6FF7101EAC0001E49B8
:1014B000088010BD01461C4A12884A434FF0E023C1
:1014C0005A6100229A6101221A6100BF4FF0E022A6
:1014D000106900F001021AB100F48032002AF5D040
:1014E00000224FF0E0231A619A61704701460D4ACD
:1014F00012784A434FF0E0235A6100229A61012298
:101500001A6100BF4FF0E022106900F001021AB129
:1015100000F48032002AF5D000224FF0E0231A6157
:101520009A61704702000020040000200CB50020E2
:10153000019000906C48006840F480306A4908606F
:1015400000BF6948006800F4003000900198401C1A
:101550000190009818B90198B0F5A06FF1D16248D8
:10156000006800F4003010B10120009001E000207C
:1015700000900098012843D15C48006840F01000BA
:101580005A4908600846006820F0030008600846D1
:10159000006840F0020008605348406852494860C3
:1015A0000846406848600846406840F480604860EB
:1015B0000846406820F47C1048600846406840F4C3
:1015C000E81048600846006840F08070086000BF7E
:1015D0004548006800F000700028F9D04248406893
:1015E00020F00300404948600846406840F002008F
:1015F000486000BF3C48406800F00C000828F9D162
:101600000CBD10B5FFF792FF10BD10B5364800684D
:1016100040F00100344908600846406834490840F9
:101620003149486008460068324908402E49086040
:101630000846006820F4802008600846406820F4CE
:10164000FE0048604FF41F008860FFF7DAFF4FF09C
:1016500000602949086010BD10B50021002000225B
:10166000214B5B6803F00C0121B1042906D0082945
:1016700028D107E0214B224C236027E01F4B204C50
:10168000236023E0184B5B6803F47010164B5B6813
:1016900003F48032022303EB904022B9194B4343F9
:1016A000174C23600DE0104B5B6803F4003323B14B
:1016B000144B4343124C236003E0104B4343104C44
:1016C000236003E00D4B0E4C236000BF00BF064BB0
:1016D0005B68C3F303130C4CE15C094B1B68CB4004
:1016E000074C236010BD00000010024000200240A3
:1016F0000000FFF8FFFFF6FE08ED00E000127A00A0
:101700000800002000093D000C00002008B5012160
:101710000D2002F045F94FF48060ADF80000102074
:101720008DF8030003208DF802006946424801F05D
:101730007BFE4FF48061404801F023FF4FF480505E
:10174000ADF8000010208DF8030003208DF8020092
:1017500069463A4801F068FE4FF48051374801F07D
:1017600010FF2020ADF8000028208DF80300694606
:10177000324801F059FE4020ADF8000028208DF8D5
:10178000030069462D4801F04FFE8020ADF80000AF
:1017900028208DF803006946284801F045FE08BD61
:1017A00010B5044614B1012025490870244800787A
:1017B00070B34021214801F0CAFE01280BD020213E
:1017C0001E4801F0C4FE012805D080211B4801F00D
:1017D000BEFE01281CD10A20FFF76CFE002018492C
:1017E00008704021154801F0B2FE012800D110BD5B
:1017F0002021124801F0ABFE012801D10220F6E7BA
:1018000080210E4801F0A3FE012813D10320EEE74A
:1018100040210A4801F09BFE60B92021074801F0F1
:1018200096FE38B98021054801F091FE10B90120DB
:10183000034908700020DAE700080140000C01406D
:101840001C0000204FF48051FE4A11600911116004
:101850000102FD4A11600121FA4A1160121F116054
:101860000902116070474FF48051F64A121F11604F
:101870000911121D11600102F34A11600121F14AA0
:101880001160121F11600902116070474FF48071DE
:10189000EC4A11600221121F1160C9021160EA496D
:1018A00008600121121D1160121F11600102E64A39
:1018B00011600121E34A1160121F116009021160D9
:1018C000704710B504460B462046FFF7BBFF18468D
:1018D000FFF7C9FF10BD00B5DC49087AFFF7B2FF7A
:1018E00000BD10B503460C46D849887AFFF7AAFF19
:1018F0001812FFF7B8FFD8B2FFF7B5FFD349087B3E
:10190000FFF7A0FF2012FFF7AEFFE0B2FFF7ABFF3B
:10191000FFF7E1FF10BD30B504460D4629462046CD
:10192000FFF7DFFF4FF48070C64908600220091FEF
:101930000860C0020860C6480088C34908600120EA
:10194000C0490860091F0860C14800880002BE49FC
:1019500008600120BB490860091F08600002086098
:1019600030BD70B504460D461646B849887AFFF773
:1019700069FF2012FFF777FFE0B2FFF774FF301224
:10198000FFF771FFF0B2FFF76EFFB049087BFFF77A
:1019900059FF2812FFF767FFE8B2FFF764FF18123C
:1019A000FFF761FFD8B2FFF75EFFFFF794FF70BD4E
:1019B00030B504460025A5484088401E83B2A348A0
:1019C0000088401E82B200210846FFF7CAFF4FF48C
:1019D00080509C49091F08600011091D086000BF64
:1019E0000FE099480460012096490860091F0860CB
:1019F000200295490860012092490860091F08608B
:101A00006D1C92480088914949884843A842E8D80B
:101A10004FF480708B49091F086030BD08B5012163
:101A20000C2001F0BDFF41F21330ADF80000102092
:101A30008DF8030003208DF80200694681481438B0
:101A400001F0F2FC41F213317E48143801F099FDA7
:101A50004FF47F40ADF8000069467B480C3801F038
:101A6000E3FC4FF47F4178480C3801F08AFD08BD53
:101A700010B51020734908606420FFF71BFD10208B
:101A80007049091F08603220FFF714FD10BD00B532
:101A90002C206E49088100208871F02008804FF4C6
:101AA000A07048802A2048812B208881C9213620B7
:101AB000FFF707FF00BD10B5FFF7B0FFFFF7D8FF36
:101AC000CF20FFF7BFFE0020FFF7CDFEC120FFF7BC
:101AD000CAFE3020FFF7C7FEED20FFF7B3FE6420FB
:101AE000FFF7C1FE0320FFF7BEFE1220FFF7BBFE8B
:101AF0008120FFF7B8FEE820FFF7A4FE8520FFF75E
:101B0000B2FE1020FFF7AFFE7A20FFF7ACFECB202D
:101B1000FFF798FE3920FFF7A6FE2C20FFF7A3FE63
:101B20000020FFF7A0FE3420FFF79DFE0220FFF704
:101B30009AFEF720FFF786FE2020FFF794FEEA20AA
:101B4000FFF780FE0020FFF78EFE0020FFF78BFEE0
:101B5000C020FFF777FE1B20FFF785FEC120FFF7AF
:101B600071FE0120FFF77FFEC520FFF76BFE3020DE
:101B7000FFF779FE3020FFF776FEC720FFF762FE01
:101B8000B720FFF770FE3620FFF75CFE4820FFF716
:101B90006AFE3A20FFF756FE5520FFF764FEB1209B
:101BA000FFF750FE0020FFF75EFE1A20FFF75BFEF6
:101BB000B620FFF747FE0A20FFF755FEA220FFF7E9
:101BC00052FEF220FFF73EFE0020FFF74CFE2620DB
:101BD000FFF738FE0120FFF746FEE020FFF732FE58
:101BE0000F20FFF740FE2A20FFF73DFE2820FFF7D9
:101BF0003AFE0820FFF737FE0E20FFF734FE0820DC
:101C0000FFF731FE5420FFF72EFEA920FFF72BFE31
:101C10004320FFF728FE0A20FFF725FE0F20FFF7DD
:101C200022FE0020FFF71FFE0020FFF71CFE002011
:101C3000FFF719FE0020FFF716FEE120FFF702FE76
:101C4000002007E0140801400C0C0140FC010020BA
:101C50001E000020FFF707FE1520FFF704FE1720E7
:101C6000FFF701FE0720FFF7FEFD1120FFF7FBFD48
:101C70000620FFF7F8FD2B20FFF7F5FD5620FFF7B4
:101C8000F2FD3C20FFF7EFFD0520FFF7ECFD1020F3
:101C9000FFF7E9FD0F20FFF7E6FD3F20FFF7E3FD2B
:101CA0003F20FFF7E0FD0F20FFF7DDFD2B20FFF7C2
:101CB000C9FD0020FFF7D7FD0020FFF7D4FD01206C
:101CC000FFF7D1FD3F20FFF7CEFD2A20FFF7BAFD39
:101CD0000020FFF7C8FD0020FFF7C5FD0020FFF73B
:101CE000C2FDEF20FFF7BFFD1120FFF7ABFD78200D
:101CF000FFF7E0FB2920FFF7A5FDFFF7C8FE012055
:101D0000A549086010BD2DE9F84F80460E461746DC
:101D10001C46B3462046E31704EB5373DB10214601
:101D20004FEAE47C04EB5C7C4FEAEC0CA4EBCC0CBB
:101D3000BCF1000F02D04FF0010C01E04FF0000C9D
:101D40006344224604EBD27C4FEA6C0C03FB0CF399
:101D5000DBB20093A7F12000C7B2002556E00C2C9F
:101D600007D107EB47008D4901EB800010F8059083
:101D700013E0102C05D18A4800EB071010F80590ED
:101D80000BE0182C07D107EBC700864901EB800058
:101D900010F8059001E0BDE8F88F4FF0000A2FE041
:101DA00009F0800030B18048028831464046FEF795
:101DB00065FE07E00A9828B97C480288314640460B
:101DC000FEF75CFE4FEA49604FEA1069701C86B26C
:101DD00077484088B04200DCDDE7A6EB0B00A0426C
:101DE0000AD15E4608F101001FFA80F870480088A9
:101DF000404500DCCFE706E00AF1010000F0FF0AF1
:101E0000BAF1080FCCDB00BF681CC5B20098854250
:101E1000A5DB00BFBFE72DE9F84F04460D4690460D
:101E20009946DDE90A6704F0FF0A08EB04001FFA8F
:101E300080F809EB05001FFA80F916E0444502DB43
:101E40005446A81985B24D4500DB14E000200090EF
:101E50003A78334629462046FFF755FF304606EBD1
:101E6000D07104EB61018CB27F1C38787E2802DCD3
:101E700038782028E2DA00BFBDE8F88F2DE9F84F66
:101E800007460D4690469946DDF828B0A8EB0700B6
:101E9000401C1FFA80FAA9EB0500401C80B200909C
:101EA000002414E0281981B23846FFF71AFDFFF725
:101EB00012FD002607E004FB0A613BF81100FFF762
:101EC000D2FC701C86B25645F5DB601C84B20098CB
:101ED0008442E7DBBDE8F88F00BF011EA0F10102DC
:101EE000D0B2FAD170472DE9F04104460D46304892
:101EF0000088A04203DD2E484088A84202DC002072
:101F0000BDE8F08129462046FFF7EBFC2E20FFF7C5
:101F100099FC4FF08830274908604FF6FF7025493B
:101F2000083108608814244908600011091D086000
:101F300002200860FFF7D0FF1E48001D006886B22F
:101F400002201D490860091D0860FFF7C5FF1948F8
:101F5000001D006886B2022017490860091D08604C
:101F6000FFF7BAFF1348001D00681FFA80F802202F
:101F700011490860F7B24FF6FF7000EA072788158D
:101F800008604FF033300B4908604FF6FF70094985
:101F9000083108603046B3E7A4012142ACCA00080A
:101FA00020CF000810D500081E00002020000020CF
:101FB000FC010020040C01401008014070B50546EA
:101FC000002405E0601CC4B2C82C01DD002070BDF7
:101FD00002212F4801F097FE0028F3D029462C4813
:101FE00001F03EFE002405E0601CC4B2C82C01DDF7
:101FF0000020ECE70121264801F085FE0028F3D0FF
:10200000234801F02FFEC0B2E1E708B5012141F2FB
:10201000040001F0C5FCE020ADF8000018208DF8A8
:10202000030003208DF8020069461A4801F0FCF90C
:10203000E021184801F0A5FA0020174908804FF464
:1020400082704880002088800220C880012008819A
:1020500040024881382088810020C88107200882FA
:102060000B4801F027FD0121094801F0C8FDFF20C0
:10207000FFF7A4FF08BD10B5044607488481014658
:10208000034801F017FD0121014801F0B8FD10BD22
:1020900000300140000801400A02002010B504464B
:1020A0002046FFF78BFF10BD10B53820FFF7E3FF88
:1020B00010BD10B50020FFF7DEFF10BD08B50121EF
:1020C000042001F06DFC1C20ADF8000010208DF8FC
:1020D000030003208DF802006946F64801F0A4F9D8
:1020E0001C21F44801F04DFAFFF78FFF0120F2495F
:1020F000086008BD10B50120EF490860FF20FFF718
:10210000CDFF10BD10B5002400BFFF20FFF7C6FFB4
:10211000FF2801D1002010BD641C6FF07F40844275
:10212000F3D30120F7E710B50020E3490860FFF77B
:10213000E9FF08B9002010BDFFF7DCFF0120FAE736
:1021400070B505464FF6FF7401E0601E84B2FF20B3
:10215000FFF7A4FFA84201D0002CF6D10CB9FF2054
:1021600070BD0020FCE770B504460D46FE20FFF769
:10217000E7FF08B1012070BD04E0FF20FFF71EFF5C
:102180002070641C281EA5F101018DB2F5D1FF203D
:10219000FFF784FFFF20FFF781FF0020EBE770B51A
:1021A00006460D46FFF7AEFF08B1012070BD284678
:1021B000FFF774FFFD2D19D0002404E0305DFFF718
:1021C000FDFE601C84B2B4F5007FF7DBFF20FFF753
:1021D00065FFFF20FFF762FFFF20FFF75FFF044668
:1021E00004F01F00052801D00220DFE70020DDE712
:1021F0002DE9F04105460C4617464FF00008FFF761
:1022000079FFFFF790FF10B1FF20BDE8F08145F0A6
:102210004000FFF743FF200EFFF740FFC4F30740E5
:10222000FFF73CFFC4F30720FFF738FFE0B2FFF7EA
:1022300035FF3846FFF732FF0C2D02D1FF20FFF7A4
:102240002DFF4FF01F0800BFFF20FFF727FF0646B6
:1022500006F0800030B1B8F10000A8F1010101F0F2
:10226000FF08F1D13046D0E770B5054601220021C4
:102270000A20FFF7BDFF044624B910212846FFF7C6
:1022800072FF0446FFF736FF0CB1012070BD00203D
:10229000FCE770B50546012200210920FFF7A8FFE1
:1022A000044624B910212846FFF75DFF0446FFF7D6
:1022B00021FF0CB1012070BD0020FCE77FB568460E
:1022C000FFF7E7FF10B1002004B070BD9DF80000DB
:1022D00000F0C000402809D19DF809009DF80810C1
:1022E00000EB0120401C84B2A50220E09DF805000F
:1022F00000F00F009DF80A1000EBD1109DF80910B6
:1023000001F0030100EB4100861C9DF808008011DC
:102310009DF8071000EB81009DF8061001F0030105
:1023200000EB8120441CA6F1090004FA00F52846C0
:10233000CAE7F8B5FFF7C2FEFFF7B6FE002504E0D6
:10234000FF20FFF7ABFE681C85B20A2DF8DB1426D0
:1023500000BF952200210846FFF74AFF0446012CE2
:1023600004D0301EA6F101018EB2F2D100205349F3
:102370000870012C4AD187224FF4D5710820FFF74D
:1023800037FF012847D1002506E0FF20FFF786FE32
:102390000DF80500681C85B2042DF6DB9DF80200DF
:1023A000012879D19DF80300AA2875D14FF6FE7651
:1023B00000BF012200213720FFF71AFF01229107F9
:1023C0002920FFF715FF044624B1301EA6F10101B4
:1023D0008EB2EED1002E5FD0012200213A20FFF70D
:1023E00007FF002858D1002506E0FF20FFF756FE22
:1023F0000DF80500681C85B2042DF6DB9DF8000081
:1024000000F0400018B106202C49087044E0042078
:102410002A49087040E0012200213720FFF7E8FE3A
:10242000012200212920FFF7E3FE0446012C17DCDE
:102430000220224908704FF6FE7600BF01220021DB
:102440003720FFF7D5FE012200212920FFF7D0FE1B
:102450000446BCB1301EA6F101018EB2EED111E0EE
:102460000120164908704FF6FE7600BF01220021B8
:102470001046FFF7BDFE044624B1301EA6F101014F
:102480008EB2F3D12EB1012251021020FFF7B0FE1F
:1024900010B1002009490870FFF72CFEFFF709FE74
:1024A0000648007808B10020F8BD0CB12046FBE7D3
:1024B000AA20F9E7000801408C01214224000020F5
:1024C0002DE9F04106460F4615463C48007806289F
:1024D00000D07F02012D0CD1012239461120FFF7D7
:1024E00087FE0446FCB969023046FFF73CFE04460D
:1024F00019E0012239461220FFF77AFE044600BF98
:102500004FF400713046FFF72EFE044606F50076C4
:10251000681EC0B2051E01D0002CF1D0012200219E
:102520000C20FFF765FEFFF7E5FD2046BDE8F081D2
:102530002DE9F04106460F4615462048007806284A
:1025400000D07F02012D0CD1012239461820FFF75F
:102550004FFE04466CBBFE213046FFF720FE0446CA
:1025600027E016480078012809D0012200213720F1
:10257000FFF73EFE012229461720FFF739FE012210
:1025800039461920FFF734FE044694B900BFFC21F8
:102590003046FFF704FE044606F50076681EC0B21A
:1025A000051E01D0002CF2D0FD210020FFF7F7FD21
:1025B0000446FFF79FFD2046BDE8F081240000207F
:1025C00070B503460C4603E014F8015B03F8015BA9
:1025D000151EA2F10102F7D170BD30B5034601E02E
:1025E00003F8011B141EA2F10102F9D130BD00B5A0
:1025F00057498022C8680021FFF7EFFF54494FF484
:10260000006288680021FFF7E8FF01205049087444
:1026100000BD0022002106E04D48C06830F81100DE
:1026200000B1521C491C4029F6D364205043C0F32A
:10263000871070472DE9F04106460024A046444823
:10264000007C10B94249086880471EB94FF0FF303E
:10265000BDE8F081C6F34F1506F01F0008B1681CF5
:1026600085B23F241AE03A48C06830F8140020B917
:1026700008F101001FFA80F801E04FF00008A845BA
:102680000BD1002705E03248C068E11920F811504D
:102690007F1CAF42F7D36001DAE7641E002CE2DA58
:1026A0004FF0FF30D4E770B505462948007C20B9CB
:1026B000274908688047012070BDB5F5006F11D229
:1026C00069092348C06830F81120002406E0002082
:1026D0001F4BDB680E1923F81600641C9442F6DBCE
:1026E0000020E9E70220E7E770B5044604B970BDB1
:1026F00017488068251A2846FFF7D5FF00BFF6E780
:1027000070B505462846FFF795FF0446601C08B9DA
:10271000002070BD0E4880682044FAE770B5064678
:102720000C462046FFF786FF0546681C08B90020C6
:1027300070BD07498968481922463146FFF740FFB6
:102740003046FFF7D1FF024880682844F0E70000D8
:102750002800002010B500240020D04908609020F7
:10276000FFF72CFC0020FFF729FC0020FFF726FCD8
:102770000020FFF723FCFF20FFF720FC44EA0024A1
:10278000FF20FFF71BFC04430120C549C1F8BC0131
:10279000204610BD08B50121042001F001F90121F6
:1027A000084601F0FDF80121BE4800F00EFF48F296
:1027B0000800ADF8000010208DF8030003208DF80C
:1027C00002006946B84800F02FFE48F20801B648FA
:1027D00000F0D7FEFFF719FC0820FFF74CFCFFF7CD
:1027E000B9FFB249088008BD10B500240020AB49EC
:1027F00008600520FFF7E2FBFF20FFF7DFFB044640
:102800000120A749C1F8BC01204610BD10B50446FF
:102810000020A24908600120FFF7D0FB2046FFF707
:10282000CDFB01209E49C1F8BC0110BD10B50020B0
:102830009A4908600620FFF7C1FB01209849C1F8BA
:10284000BC0110BD10B50020944908600420FFF7BA
:10285000B5FB01209249C1F8BC0110BD2DE9F04142
:1028600006460C46174600208C4908600320FFF7F7
:10287000A5FBC4F30740FFF7A1FBC4F30720FFF754
:102880009DFBE0B2FFF79AFB002505E0FF20FFF774
:1028900095FB7055681C85B2BD42F7DB01207F496E
:1028A0000860BDE8F08110B500BFFFF79DFF00F0A4
:1028B00001000028F9D110BD2DE9F04106460C4673
:1028C0001746FFF7B3FF0020744908600220FFF7A6
:1028D00075FBC4F30740FFF771FBC4F30720FFF754
:1028E0006DFBE0B2FFF76AFB002504E0705DFFF7C7
:1028F00065FB681C85B2BD42F8DB012067490860B2
:10290000FFF7D1FFBDE8F0812DE9F04107460E4603
:102910001446F0B2C0F58075AC4200DC254612E0EA
:102920002A4631463846FFF7C7FFAC4200D10BE0DC
:102930002F442E44601B84B2B4F5807F02DD4FF437
:10294000807500E02546EBE700BFBDE8F08110B5DB
:1029500004462403FFF76AFFFFF7A5FF00204F4955
:1029600008602020FFF72AFBC4F30740FFF726FB8F
:10297000C4F30720FFF722FBE0B2FFF71FFB0120A3
:102980004749C1F8BC01FFF78EFF10BD2DE9F047A4
:1029900081460F4616464FEA1738C7F30B0ACAF5A9
:1029A0008054A64200DC344644E04FEA08314FF43C
:1029B00080523F48FFF752FF002508E00AEB050070
:1029C0003B49085CFF2800D003E0681C85B2A542A3
:1029D000F4DB00BFA54216DA4046FFF7B8FF00253A
:1029E00007E019F8050005EB0A01314A5054681C4C
:1029F00085B2A542F5DB4FEA08314FF480522C48EE
:102A0000FFF782FF04E0224639464846FFF77CFF85
:102A1000A64200D10FE008F101084FF0000AA144DE
:102A20002744301B86B2B6F5805F02DD4FF4805438
:102A300000E03446B9E700BFBDE8F08710B5FFF706
:102A4000F5FEFFF730FF002014490860C720FFF7AC
:102A5000B5FA01201249C1F8BC01FFF724FF10BDEF
:102A600010B500200D490860B920FFF7A7FA012032
:102A70000B49C1F8BC010320FEF738FD10BD10B5AD
:102A8000002006490860AB20FFF798FA01200449AE
:102A9000C1F8BC010320FEF729FD10BDBC01214295
:102AA0000000214200023000000801403C000020EC
:102AB0009C0A002008B54FF40040ADF8000010203B
:102AC0008DF8030001208DF802006946984800F057
:102AD000ABFC00209749086040F2EE20FEF706FDAF
:102AE00001209549C1F8BC010F20FEF7FFFC08BD8D
:102AF00038B500244FF40040ADF8000048208DF8B0
:102B0000030001208DF802006946894800F08CFC22
:102B100004E0601CC4B20120FEF7E8FC8548803860
:102B2000006808B1C82CF4DBC82C01DB012038BDDB
:102B3000002404E0601CC4B20120FEF7D7FC7D48ED
:102B40008038006808B9F02CF4DBF02C01DB0120A0
:102B5000EDE70020EBE738B54FF40040ADF800009A
:102B600010208DF8030001208DF80200694670489E
:102B700000F05AFC00206F4908600220FEF7B6FC06
:102B800001206D49C1F8BC01C003ADF80000482028
:102B90008DF8030001208DF802006946644800F0BA
:102BA00043FC0C20FEF7A2FC62488038006808B1A4
:102BB000012400E000243220FEF798FC204638BDB6
:102BC00070B50026012508E0FFF7C5FF0446E001C7
:102BD00040EA6600C6B2681CC5B2082DF4DD304676
:102BE00070BDF8B504464FF40040ADF80000102069
:102BF0008DF8030001208DF8020069464C4800F072
:102C000013FC012520E004F0010664106EB10020E1
:102C1000484908600220FEF769FC01204649C1F8D6
:102C2000BC013C20FEF762FC0CE00020414908603A
:102C30003C20FEF75BFC01203F49C1F8BC010220AB
:102C4000FEF754FC681CC5B2082DDCDDF8BD10B5DC
:102C5000FFF730FFFFF74CFFCC20FFF7C2FF442007
:102C6000FFF7BFFF10BD08B50121042000F098FE5A
:102C70000121324800F0A9FC4FF40040ADF80000FB
:102C800010208DF8030003208DF8020069462848C3
:102C900000F0CAFB4FF40041254800F072FCFFF73A
:102CA00009FFFFF725FF08BD2DE9F84FFFF7CFFF1C
:102CB000FFF700FFFFF71CFFCC20FFF792FFBE20BD
:102CC000FFF78FFFFFF77CFF8346FFF779FF04468E
:102CD000072C08DDE043C4B26FEA0B0000F0FF0BE5
:102CE0004FF0000A01E04FF0010AA1464FEA092027
:102CF0000FFA80F909EB0B000FFA80F9484608F04B
:102D0000BBFA009008F008F9074600220C4B08F0C7
:102D100005F8054607F0D2FF0FFA80F9BAF1000F67
:102D200002D04846BDE8F88FC9F1000000B2F9E7CB
:102D300000080140BC012142000021420002300095
:102D40000000E43F014600BF704700BF494A1288B7
:102D500002F04002002AF9D0C2B2464B1B1D1A8075
:102D6000704710B586B00446012144F2050000F01A
:102D700017FE4FF40070ADF8140003208DF8160014
:102D800018208DF8170005A93B4800F04DFB4FF4C3
:102D90008060ADF8140004208DF8170005A93648AE
:102DA00000F042FB25208DF8000003208DF8010083
:102DB0008DF8020001208DF80300684600F06BFAE0
:102DC00001940020ADF80800ADF80A00ADF80C0041
:102DD000ADF810000C20ADF80E0001A9254801F057
:102DE0000CF8012240F22551224801F09EF8012101
:102DF000204801F08EF806B010BD10B540F2255104
:102E00001C4801F077F910B31A4801F0F3F8C4B286
:102E10001A48007800F08000C8B91848007800F01F
:102E2000400060B10A2C03D000201449087020E053
:102E30001248007840F080001049087019E00D2C0D
:102E400006D10E48007840F040000C49087010E0B0
:102E50000A48007800F03F0009490C540748007800
:102E6000401C06490870084600783F2801DD002014
:102E7000087010BD003801400008014044000020E7
:102E80009C1A002010B50121182000F089FD0220B5
:102E9000EB4908801020C87003208870E94800F0D2
:102EA000C3FA0120E64908801020C870032088700A
:102EB000E44800F0B9FA4FF40050E14908801020CE
:102EC000C87003208870E04800F0AEFA10BD00E042
:102ED00000BF011EA0F10100FAD1704710B501201A
:102EE000D74908801020C870D64800F09DFA10BD60
:102EF00010B50120D24908804820C870D14800F0A0
:102F000093FA10BD70B50546012418E005EA0400E7
:102F100020B10120CB491031086003E00120C949EC
:102F2000143108600220C749103108603220FFF7D1
:102F3000CEFF0220C349143108606006040E002C45
:102F4000E4D170BD70B50025012413E0BD48083000
:102F5000006800F0010000B125430220B94910319A
:102F600008603220FFF7B3FF0220B6491431086031
:102F70006006040E002CE9D1284670BD70B50546E8
:102F80000C46FFF7ABFF4FF40050AF4948610220F9
:102F9000AC49143108600003AB4908616420FFF7B5
:102FA00096FF2846FFF7AEFF2046FFF7ABFF6420F1
:102FB000FFF78DFF4FF40050A349486170BD70B515
:102FC00004460025FFF78AFF4FF400509E494861F0
:102FD00002209C491431086000039B490861642069
:102FE000FFF775FF44F00100FFF78CFFFFF780FF4C
:102FF000FFF7A8FF05466420FFF769FF4FF4005074
:1030000091494861284670BD10B504468C20FFF7F1
:10301000D6FF20708A20FFF7D2FF60708820FFF76C
:10302000CEFFA0708620FFF7CAFFE0708420FFF774
:10303000C6FF20718220FFF7C2FF60718020FFF77A
:10304000BEFFA07110BD70B50446C02040EA440028
:10305000C5B22846FFF7B3FF0646304670BD70B5CF
:1030600004460D4600218E20FFF788FFC02040EA6D
:103070004400C6B229463046FFF780FF80218E20EB
:10308000FFF77CFF70BD2DE9F04105460F4616465F
:103090001E2E01DDBDE8F081002408E0791C2144EA
:1030A000C8B2FFF7D0FF28706D1C601CC4B2B442D8
:1030B000F4DB00BFEEE72DE9F04105460F4616466A
:1030C0001E2E01DDBDE8F081002408E015F8011B8B
:1030D0007A1C2244D0B2FFF7C2FF601CC4B2B442D3
:1030E000F4DB00BFEEE710B50446FFF7F7FE4FF440
:1030F00000505549486102205249143108600003CC
:10310000514908616420FFF7E2FEBF20FFF7FAFE95
:10311000FFF7EEFEFFF716FFA071FFF713FF6071D8
:10312000FFF710FF2071FFF70DFFA070FFF70AFFF8
:103130006070FFF707FFE070FFF704FF2070FFF7F4
:1031400001FF6420FFF7C3FE4FF400503E49486181
:1031500010BD10B5044600218E20FFF70FFFFFF7CA
:10316000BDFE4FF400503849486102203549143102
:1031700008600003344908616420FFF7A8FEBE2000
:10318000FFF7C0FEA079FFF7BDFE6079FFF7BAFE3A
:103190002079FFF7B7FEA078FFF7B4FE6078FFF75D
:1031A000B1FEE078FFF7AEFE2078FFF7ABFE80209F
:1031B000FFF7A8FE6420FFF78AFE4FF40050224973
:1031C000486110BD10B5FFF75DFE0020FFF73BFF23
:1031D000044684F0A500B8B1A5210020FFF73FFF09
:1031E00000218E20FFF7CAFE03219020FFF7C6FEC4
:1031F00000218420FFF7C2FE00218020FFF7BEFEE1
:1032000080218E20FFF7BAFE10BD10B590B0FFF7F9
:10321000D9FF002406E008A8045500200DF804009A
:10322000601CC4B21E2CF6DB1E22002108A8FFF78A
:1032300042FF1E2200216846FFF725FF10B010BD97
:1032400062000020000C0140001001400948804746
:1032500009480047FEE7FEE7FEE7FEE7FEE7FEE778
:10326000FEE7FEE7FEE7FEE704480549054A064B90
:10327000704700000B160008ED000008A01B00209E
:10328000A0210020A01D0020A01D002031490143E5
:10329000314A1160704770B5002100230F22C478B5
:1032A00004B32D4C246804F4E064C4F5E064210AFE
:1032B000C1F10403CA40447804FA03F1847814404D
:1032C00021430901254C0678A155047804F01F0517
:1032D0000124AC4005786D11AD0005F1E025C5F87D
:1032E000004109E0047804F01F050124AC401C4DA6
:1032F0000678761145F8264070BD1A4A0A40024306
:10330000154B1B1F1A60704739B1134A121D126802
:103310000243114B1B1D1A6006E00F4A121D126872
:1033200082430D4B1B1D1A607047042808D14FF0D3
:10333000E021096941F004014FF0E022116107E04A
:103340004FF0E021096921F004014FF0E022116102
:10335000704700000000FA050CED00E000E400E01A
:1033600080E100E080FFFF1F10B50446CC48844296
:1033700008D10121042000F02DFB0021042000F0E1
:1033800029FB46E0C748844208D10121082000F00B
:1033900021FB0021082000F01DFB3AE0C2488442D6
:1033A00008D10121102000F015FB0021102000F0B1
:1033B00011FB2EE0BD48844208D10121202000F0FD
:1033C00009FB0021202000F005FB22E0B8488442E0
:1033D00008D10121402000F0FDFA0021402000F03A
:1033E000F9FA16E0B348844208D10121802000F0A8
:1033F000F1FA0021802000F0EDFA0AE0AE488442A4
:1034000007D10121801500F0E5FA0021A01500F098
:10341000E1FA10BD10B50121084600F0DBFA0021E9
:10342000012000F0D7FA10BD2DE9F0410246002539
:103430000026002000230024002791F803C00CF090
:103440000F0591F803C00CF0100CBCF1000F03D075
:1034500091F802C04CEA050591F800C0BCF1000FDC
:1034600031D0146800202BE04FF0010C0CFA00F36F
:10347000B1F800C00CEA03069E4220D183004FF051
:103480000F0C0CFA03F7BC4305FA03FC4CEA0404E6
:1034900091F803C0BCF1280F06D14FF0010C0CFAD3
:1034A00000FCC2F814C00AE091F803C0BCF1480F58
:1034B00005D14FF0010C0CFA00FCC2F810C0401C02
:1034C0000828D1D31460B1F800C0BCF1FF0F34DD7F
:1034D000546800202EE000F1080C4FF0010808FAB3
:1034E0000CF3B1F800C00CEA03069E4221D1830020
:1034F0004FF00F0C0CFA03F7BC4305FA03FC4CEA3F
:10350000040491F803C0BCF1280F05D100F1080CA8
:1035100008FA0CF8C2F8148091F803C0BCF1480F07
:1035200007D100F1080C4FF0010808FA0CF8C2F8B6
:103530001080401C0828CED35460BDE8F0814FF6BF
:10354000FF710180022181700421C1707047024621
:10355000002093680B400BB1012000E00020704771
:103560000146886880B2704702460020D3680B404D
:103570000BB1012000E0002070470146C86880B20E
:10358000704701617047416170470AB1016100E015
:1035900041617047C16070474FF480320A438261D5
:1035A0008161826182698269704702460020434BD3
:1035B00018684FF68073184040EA021008433F4BEA
:1035C000186070473E49C8617047F0B50A4600234D
:1035D00000240021002500F00046B6F1004F02D182
:1035E000364EF16901E0354E7168C0F3034583B290
:1035F00000F44016B6F5401F08D121F070612F4E3F
:10360000766826F070662D4F7E6012E000F480161A
:10361000B6F5801F06D1032606FA05F4A14341F052
:10362000706106E0460D360103FA06F6B14341F03B
:10363000706122B1460D360103FA06F6314300F0FF
:103640000046B6F1004F02D11C4EF16101E01B4E65
:103650007160F0BD30B500228B071C0F0F2303FAF9
:1036600004F2164B08338C1053F824309343134C58
:1036700008348D1044F8253023468C1053F824303C
:103680008C07240F00FA04F423430C4C08348D10EB
:1036900044F8253030BD0A49DC310860704700002D
:1036A00000080140000C01400010014000140140DE
:1036B00000180140001C01400020014000000140B2
:1036C00000002042DF48006840F00100DD4908604A
:1036D00008464068DC490840DA4948600846006806
:1036E000DA490840D74908600846006820F480207D
:1036F00008600846406820F4FE0048604FF41F0050
:1037000088607047CF49096821F48031CD4A116043
:103710001146096821F480211160B0F5803F03D083
:10372000B0F5802F0ED106E0C649096841F480311A
:10373000C44A116007E0C349096841F4A021C14AA5
:10374000116000E000BF00BF704710B501460022C5
:10375000002300204A11012A02D1BA4C236806E056
:10376000022A02D1B74C236A01E0B64C636A01F029
:103770001F02012494401C400CB1012000E00020F5
:1037800010BD38B5002000900024002500BF312076
:10379000FFF7DBFF05460098401C00900098B0F54D
:1037A000A06F01D0002DF2D03120FFF7CEFF08B17D
:1037B000012400E00024204638BD01460020A14A33
:1037C000106820F0F80040EAC10010607047A0497E
:1037D00008607047024600209A4B586820F47C101D
:1037E00042EA01031843974B5860704798490866AE
:1037F000704701460020934A506820F003000843B8
:10380000506070478F48406800F00C0070470146D8
:1038100000208C4A506820F0F00008435060704748
:1038200001460020874A506820F4E0600843506059
:10383000704701460020834A506820F4605040EAF7
:10384000C1005060704729B17E4A527A02437D4BD5
:103850005A7204E07B4A527A82437A4B5A7270471A
:103860007B49D8310860704701460020754A50688E
:1038700020F440400843506070470021714A2032D4
:103880001170704A82F82010012802D004280AD151
:1038900004E001216B4A2032117005E00521694ADC
:1038A0002032117000E000BF00BF70476949086016
:1038B00070476449096A0143624A11627047654969
:1038C00044390860704730B50021002200240023ED
:1038D0005C4D6D6805F00C0121B1042905D0082963
:1038E00023D105E05C4D056022E05B4D05601FE0E3
:1038F000544D6D6805F47012524D6D6805F48034B6
:10390000022505EB92421CB9544D554305600BE06E
:103910004C4D6D6805F400351DB1504D55430560A3
:1039200002E04D4D5543056002E04B4D056000BF80
:1039300000BF444D6D6805F0F0010909484D6B5C0E
:103940000568DD4045603F4D6D6805F4E061090A9A
:10395000434D6B5C4568DD4085603A4D6D6805F40C
:103960006051C90A3E4D6B5C4568DD40C560354D10
:103970006D6805F44041890B3A4D6B5CC568B5FB39
:10398000F3F5056130BD29B12E4A526902432D4B32
:103990005A6104E02B4A526982432A4B5A617047AC
:1039A00029B1284A92690243264B9A6104E0254ACC
:1039B00092698243234B9A61704729B1214AD269A7
:1039C0000243204BDA6104E01E4AD26982431D4B58
:1039D000DA61704729B11B4AD2680243194BDA6099
:1039E00004E0184AD2688243164BDA60704729B166
:1039F000144A12690243134B1A6104E0114A126916
:103A00008243104B1A617047124940390860704771
:103A10000F49C86470470B49C87170470948406A2C
:103A200040F0807007494862704701460020054A0F
:103A300092680A400AB1012000E000207047014965
:103A400088727047001002400000FFF8FFFFF6FE8A
:103A5000000042428004424200127A0000093D0008
:103A6000660000207600002010B50446BE4884425F
:103A700008D101218014FFF7ADFF0021A014FFF74A
:103A8000A9FF16E0B948844208D101210014FFF7CC
:103A9000AEFF00212014FFF7AAFF0AE0B4488442D9
:103AA00007D10121C013FFF7A2FF0021E013FFF7A8
:103AB0009EFF10BD10B50022028802F441520B880F
:103AC0004C8823438C882343CC8823430C8923438D
:103AD0004C8923438C892343CC8923431A43028096
:103AE000838B4FF2FF74234083830B8A038210BDC4
:103AF0002DE9F04F85B005460C464FF0000902272E
:103B00004FF000084FF0010B0026B246A88B4FF291
:103B100040010840A88302202884B5F81C90A068C2
:103B2000022801D100BF38E0A08810B94FF0010B86
:103B300001E04FF0020B8D48854200D100E000BF4C
:103B40006846FFF7C0FEDDF800A0E088B0F5007F12
:103B50000AD14FEA1A2000EB80004000A168B0FBB8
:103B6000F1F0401D86B20BE04FEA4B10BAFBF0F0CB
:103B700000EB80004000A168B0FBF1F0401D86B270
:103B80000A20B6FBF0F606F00108A6EB0800C0F329
:103B90004F074FF6FF7000EA0828022F01DBFF2FC6
:103BA00002DD02274FF00008E08840EA08003843B1
:103BB0002884A088A1890843618808432188084394
:103BC00040F4006040EA0909A5F81C9005B0BDE882
:103BD000F08F0021018041808180C180018141817D
:103BE0008181C181072101827047002101804180CC
:103BF0008180C1800221816000218181704721B1D3
:103C0000028842F04002028004E002884FF6BF734F
:103C10001A400280704721B1828B42F48062828315
:103C200004E0828B4FF6FF331A408283704730B531
:103C3000002400230C110125A540ABB21AB18588E0
:103C40001D43858002E085889D43858030BD1AB183
:103C500083880B43838002E083888B438380704793
:103C6000818170470146888970474FF6FF62914213
:103C700004D0028842F48072028004E002884FF689
:103C8000FF631A400280704721B1828842F004022B
:103C9000828004E082884FF6FB731A40828070476E
:103CA00002884FF2FF731A40028002880A430280A2
:103CB0007047018841F480510180704721B102882A
:103CC00042F40052028004E002884DF6FF731A406D
:103CD0000280704702460020012901D0108B00E0CD
:103CE000908A70470146088A7047B1F5804F04D129
:103CF000028842F48042028004E002884BF6FF739F
:103D00001A40028070470246002013890B400BB115
:103D1000012000E000207047CA4302817047F0B5DF
:103D20000246002000240023002501F00F07012691
:103D3000BE40B4B20B1101269E40B3B2968806EA8B
:103D400003051689264016B10DB1012000E00020C0
:103D5000F0BD10B5002201F00F040123A3409AB278
:103D6000D343038110BD0000003001400038004003
:103D7000003C004010B50446FB48844209D10121B3
:103D80008803FFF727FE00214FF48040FFF722FE53
:103D900032E0F648844209D101214804FFF727FEAA
:103DA00000214FF40030FFF722FE25E0F048844266
:103DB00009D101218804FFF71AFE00214FF4802069
:103DC000FFF715FE18E0EB48844209D10121C80431
:103DD000FFF70DFE00214FF40020FFF708FE0BE077
:103DE000E548844208D101210805FFF700FE0021C3
:103DF0004FF48010FFF7FBFD10BD2DE9F04786B0B2
:103E000005460E460024A24600BFA1460027B08901
:103E100000B100BF2F462C8A4CF6FF700440F0889A
:103E200004432C82AC894EF6F3100440B0883189EB
:103E30000843718908430443AC81AC8A4FF6FF40C4
:103E40000440B0890443AC8201A8FFF73CFDC6489A
:103E5000874202D1DDF810A001E0DDF80CA0A889AE
:103E600000F4004040B10AEBCA0000EB0A103168D0
:103E70004900B0FBF1F807E00AEBCA0000EB0A10BA
:103E800031688900B0FBF1F86420B8FBF0F0040160
:103E90002009642101FB1089A88900F4004040B189
:103EA000322000EBC900B0FBF1F000F00700044342
:103EB00008E0322000EB09106421B0FBF1F000F0C3
:103EC0000F0004432C8106B0BDE8F0874FF4165173
:103ED000016000218180C18001810C21418100218C
:103EE0008181704710B502460020108A4FF2FF030F
:103EF00018400B884C8823438C882343CC88234369
:103F00001843108210BD0021018041808180C18052
:103F1000704721B1828942F40052828104E0828993
:103F20004DF6FF731A4082817047F0B503460024B6
:103F300000260025002040F66A17B94200D100BFD4
:103F40001846C1F3421401F01F06012707FA06F5CF
:103F5000012C01D10C3004E0022C01D1103000E022
:103F600014301AB107682F43076002E00768AF43B7
:103F70000760F0BD1AB1838A0B43838202E0838A13
:103F80008B4383827047028A4FF6F0731A40028295
:103F9000028A0A430282704782894FF2FF731A40F5
:103FA000828182890A438281704721B1828942F0ED
:103FB0000202828104E082894FF6FD731A408281F9
:103FC0007047028A4FF6DF731A400282028A0A4360
:103FD0000282704721B1028A42F48042028204E0E8
:103FE000028A4BF6FF731A4002827047C1F308023F
:103FF0008280704701468888C0F308007047818935
:1040000041F0010181817047028BD2B20283028BA1
:1040100042EA012202837047028B02F47F4202834C
:10402000028B0A430283704721B1828A42F0200248
:10403000828204E0828A4FF6DF731A4082827047E0
:1040400021B1828A42F01002828204E0828A4FF615
:10405000EF731A408282704721B1828A42F00802CF
:10406000828204E0828A4FF6F7731A408282704798
:1040700021B1828942F40042828103E08289C2F345
:104080000E028281704721B1828A42F400628282EC
:1040900004E0828A4FF2FF731A4082827047828A5C
:1040A0004FF6FB731A408282828A0A4382827047EB
:1040B00021B1828A42F00202828204E0828A4FF6B3
:1040C000FD731A408282704702460020B1F5007FDE
:1040D00000D100BF13880B400BB1012000E000208D
:1040E000704701F40072B2F5007F00D100BFCA43EF
:1040F0000280704770B5024600240023002500208E
:1041000040F66A16B14200D100BFC1F3421501F07A
:104110001F03012606FA03F3012D02D196893340CD
:1041200006E0022D02D1168A334001E0968A334020
:104130000C12012606FA04F41688344013B10CB1AF
:10414000012000E0002070BD10B50022002340F6E1
:104150006A14A14200D100BF0A1201249440A3B204
:10416000DC43048010BD00000038014000440040E2
:1041700000480040004C00400050004070B504462C
:10418000002514B1012C1DD10BE0FEF7D2F8054635
:1041900035B1FDF789FFFF20FDF780FFFDF789FFAF
:1041A00012E0FEF7F7FA704800884EF61671884262
:1041B00004D142F268606D49088002E000206B493A
:1041C000088001E0012500BF00BF0DB1012070BDD6
:1041D0000020FCE70146002070472DE9F04107462A
:1041E0000E4615461C464FF0000814B90420BDE8E1
:1041F000F08117B1012F20D110E0E2B229463046FC
:10420000FEF75EF98046B8F1000F06D0FDF74CFFCF
:10421000FF20FDF743FFFDF74CFF11E009E06902C5
:104220004FF400723046FEF719FB6D1C06F5007660
:10423000641E002CF3D1A04602E04FF0010800BF3D
:1042400000BFB8F1000F01D10020D0E70120CEE778
:104250002DE9F04107460E4615461C464FF0000872
:1042600014B90420BDE8F08117B1012F16D106E082
:10427000E2B229463046FEF75BF9804611E009E0DC
:1042800069024FF400723046FEF780FB6D1C06F5A4
:104290000076641E002CF3D1A04602E04FF0010826
:1042A00000BF00BFB8F1000F01D10020DAE7012004
:1042B000D8E72DE9F04106460F4615462EBB37B12B
:1042C000012F1AD0022F0FD0032F1BD111E0002095
:1042D00027490860FDF716FF08B9002400E0012413
:1042E0000120234908600FE04FF40070288000246B
:1042F0000AE008202880002406E0FDF7DFFF2860A0
:10430000002401E0042400BF1DE0012E1AD137B1C2
:10431000012F0FD0022F04D0032F10D106E000246C
:104320000FE04FF40070288000240AE00820288065
:10433000002406E00D4800882860002401E00424E1
:1043400000BF00E001242046BDE8F0810020704756
:1043500010B504462046FEF7D3F910BD10B504464B
:104360002046FEF7C1F910BD3C0000207A00002075
:104370008C01214270B503460C4603E014F8015B42
:1043800003F8015B151EA2F10102F7D170BD30B533
:10439000034601E003F8011B141EA2F10102F9D14A
:1043A00030BDF0B503461C460D46002000BF161E6A
:1043B000A2F1010207D014F8017B15F801CBA7EB9D
:1043C0000C06301EF3D0F0BD024600E0521C1078FF
:1043D00010B110788842F9D11078704770B5044652
:1043E0002079F8B1E56A607801232A4604F13001AA
:1043F000FFF72EFF08B1012070BD00202071206A58
:10440000281AA16988420DD2E67809E0A06905441E
:10441000607801232A4604F13001FFF719FF761E68
:10442000022EF3D20020E7E770B504460D46E06A9D
:10443000A84210D02046FFF7D1FF08B1012070BD7F
:10444000607801232A4604F13001FFF7C6FE08B167
:104450000120F4E7E5620020F1E770B5044620464C
:10446000FFF7BCFF0546002D59D1207803284FD116
:10447000607901284CD14202002104F13000FFF79D
:1044800086FF552184F82E12AA2184F82F1252207B
:1044900084F830005221312001556121322001552C
:1044A000412133200155722184F8141284F8151229
:1044B000412184F81612612184F81712217C84F8B6
:1044C0001812208A010A84F819122069010C84F854
:1044D0001A122069010E84F81B12217B84F81C1229
:1044E000A089010A84F81D12E068010C84F81E12EC
:1044F000E068010E84F81F12E069401CE0626078F9
:10450000012304F13001E26AFFF7A2FE002060718E
:10451000607800221146FFF7CCFE00B10125284645
:1045200070BD0246891E5069801E884201D8002055
:1045300070479378906A01FB0300F9E72DE9F04199
:1045400005460C46022C02D36869A04202D801201D
:10455000BDE8F0812878012804D002282CD0032857
:104560005AD13DE0274607EB5707286A00EB572151
:104570002846FFF759FF00B150E0C7F3080105F1E5
:10458000300010F801807F1C286A00EB5721284674
:10459000FFF74AFF00B141E0C7F3080105F1300021
:1045A000405C48EA002804F0010010B14FEA1810FE
:1045B000CEE7C8F30B00CBE7286A00EB14212846AE
:1045C000FFF732FF00B129E040F2FF1000EA44019A
:1045D00005F130000E183078717840EA0120B7E715
:1045E000286A00EBD4112846FFF71EFF00B115E042
:1045F00040F2FF1000EA840105F130000E18F07857
:104600000006B17840EA0140717840EA0120317833
:10461000084320F070409BE7012099E700BF4FF06E
:10462000FF3095E72DE9F04705460E461746022E66
:1046300002D36869B04202D84FF002088AE02878B5
:10464000012804D0022841D003287DD154E0B1468E
:1046500009EB5909286A00EB59212846FFF7E4FEC7
:104660008046B8F1000F00D071E0C9F3080105F1F0
:1046700030000C1806F0010020B1F9B2207861F387
:104680001F1000E03846207009F10109012028714F
:10469000286A00EB59212846FFF7C6FE8046B8F18C
:1046A000000F00D053E0C9F3080105F130000C18E9
:1046B00006F0010010B1C7F3071005E0207800F004
:1046C000F000C7F303210843207040E0286A00EBA4
:1046D00016212846FFF7A8FE8046B8F1000F00D04B
:1046E00035E040F2FF1000EA460105F130000C18F9
:1046F0002770380A60702AE0286A00EBD611284635
:10470000FFF792FE8046B8F1000F00D01FE040F2A4
:10471000FF1000EA860105F130000C18E078000671
:10472000A17840EA0140617840EA012021780843FD
:1047300000F0704007432770380A6070380CA07092
:10474000380EE07003E0FFE74FF0020800BF00BF43
:10475000012028714046BDE8F0872DE9F04104466C
:104760000E46022E02D36069B04201D8022727E02C
:10477000002721E031462046FFF7E0FE054605B957
:104780001DE0012D01D1022719E0681C08B901279D
:1047900015E0002231462046FFF744FF074607B1E7
:1047A0000DE02069401C30B12069401C2061607917
:1047B00040F0010060712E466069B042DAD800BF57
:1047C0003846BDE8F0812DE9F04704468946B9F145
:1047D000000F06D1E76817B16069B84215D8012704
:1047E00013E049462046FFF7A9FE0646022E02D2F4
:1047F0000120BDE8F087701C08B93046F9E7606910
:10480000B04201D93046F4E74F463D4600BF6D1C2B
:104810006069A84204D80225BD4201D90020E8E71A
:1048200029462046FFF78AFE064606B909E0701CB5
:1048300008B1012E01D13046DBE7BD42E7D10020AF
:10484000D7E700BF6FF0704229462046FFF7EAFE27
:104850008046B8F1000F08D1B9F1000F05D02A4603
:1048600049462046FFF7DEFE8046B8F1000F0BD127
:10487000E5602069401C78B12069401E20616079A4
:1048800040F00100607107E0B8F1010F02D14FF074
:10489000FF3000E0012005462846AAE770B5034630
:1048A0000D46586A021D680A1E68B678B0FBF6F419
:1048B00000BF02CA09B9002070BD8C4200D202E0DC
:1048C000641A121DF5E700BF10682044F4E72DE9D3
:1048D000F04104460E46E680A568012D03D020680D
:1048E0004069A84202D80220BDE8F0812DB92068B5
:1048F0000078032801D12068456A45B920680089FD
:10490000B04201D80220EFE72068476A1EE0206825
:1049100080784FEA001812E029462068FFF70EFE63
:104920000546681C08B90120DEE7022D03D3206884
:104930004069A84201D80220D6E7A6EB0806464502
:10494000EAD229462068FFF7ECFD0746E5600FB97B
:104950000220C9E707EB161020612068303006F00E
:104960000F0100EB411060610020BDE72DE9F0412F
:1049700004468846E088461CB0B208B1206910B9E8
:104980000420BDE8F08106F00F0000286CD12069FA
:10499000401C2061E06828B920680089B04263D8D3
:1049A0000420EEE720688078401E00EA16100028F8
:1049B0005AD1E1682068FFF7C1FD0546012D01D8F5
:1049C0000220DEE7681C08B90120DAE720684069A8
:1049D000A84243D8B8F1000F01D10420D1E7E16823
:1049E0002068FFF7F0FE05460DB90720C9E7012D45
:1049F00001D10220C5E7681C08B90120C1E7206881
:104A0000FFF7ECFC08B10120BBE7216801F13000A1
:104A10004FF400720021FFF7BAFC29462068FFF727
:104A200080FD2168C86200270EE00120216808711E
:104A30002068FFF7D3FC08B10120A2E72068C06A14
:104A4000401C2168C8627F1C20688078B842ECD87E
:104A50002068C06AC01B2168C86200BFE5602946A3
:104A60002068FFF75EFD2061E6802068303006F0A8
:104A70000F0100EB41106061002082E72DE9F04159
:104A800004460E4600212046FFF721FF0546EDB9FA
:104A9000002700BF21692068FFF7C6FC054605B165
:104AA00013E060690078E52802D06069007820B9D9
:104AB000781C0746B04201D107E0002701212046BB
:104AC000FFF754FF0546002DE4D000BF042D00D1B0
:104AD00007252846BDE8F08110B502468C7ECB7EC6
:104AE00044EA03201378032B05D10C7D4B7D44EA67
:104AF000032340EA034010BD81760B0AC3760A0CFB
:104B000002750B0E437570472DE9F04705460C46BC
:104B1000207820F04000401E00EB800101EBC00631
:104B200000274FF0010800BFFE48C05D205CFD4932
:104B3000C95D2144497840EA0129B8F1000F10D03D
:104B4000484602F067FE8046FF2E07D23146761CAB
:104B500035F8110002F05EFE404508D00020BDE8A7
:104B6000F0874FF6FF70814501D00020F7E7781CF1
:104B700007460D28D8D3207800F0400038B1B8F1AE
:104B8000000F04D035F8160008B10020E7E7012037
:104B9000E5E7F0B50346087800F03F00401E00EB63
:104BA000800707EBC0020025012600BFDD48405DFD
:104BB000085CDC4F7F5D0F447F7840EA07244EB1EC
:104BC000FF2A01D30020F0BD26461046521C23F8D0
:104BD000104005E04FF6FF70844201D00020F2E75C
:104BE000681C05460D28E1D3087800F0400030B17C
:104BF000FF2A01D30020E6E7002023F8120001205D
:104C0000E1E7F0B504461D464D730F27CF7200272C
:104C10000F738F76BC4681F81BC0571E07EB870CBD
:104C20000CEBC706002738463B4600BF4FF6FF7720
:104C3000B84203D03746761C34F81700DFF8E4C2D8
:104C40001CF803C001F80C000712DFF8D8C21CF8EA
:104C500003C08C448CF8017008B94FF6FF705F1CDC
:104C60003B460D2FE2D34FF6FF77B84202D034F81F
:104C700016700FB942F040020A70F0BD2DE9FC47F2
:104C800007468A4690461E460B2251463846FFF795
:104C900071FB052E18D9304610E038F8021B0025AC
:104CA0000AE00A4660F35F021046491000F48032C1
:104CB0000AB19D4A50406D1C102DF2D3B8F8002067
:104CC000002AEAD1064600BF072500BF06F00F0004
:104CD00000F13009B9F1390F03DD09F1070000F0E7
:104CE000FF0928466D1E0DF800903609002EEDD103
:104CF0007E200DF8050000240BE0385D812807DBDD
:104D0000385DFE2804DC681EA04200D106E0641C69
:104D1000641CAC4202D2385D2028EED100BF00BF37
:104D2000082D04D228466D1C1DF8001000E020213B
:104D30002046641C3954082CF2D3BDE8FC8730B5FA
:104D4000014600200B2200BF431003EBC01411F8F2
:104D5000015B6319D8B2531E1A1EF5D130BD2DE97F
:104D6000F047044600212046FFF7B1FD074617B182
:104D70003846BDE8F0874FF0FF09CA4600BF2169F9
:104D80002068FFF751FB074607B154E065692E78AC
:104D90000EB904274FE0E87A00F03F08E52E05D071
:104DA00008F0080028B1B8F10F0F02D04FF0FF094A
:104DB0003AE0B8F10F0F1CD1E069A0B306F0400053
:104DC00030B195F80DA026F04006B146E088208469
:104DD0004E450AD1687B504507D12946E069FFF767
:104DE00093FE10B1A9F1010000E0FF2000F0FF09DF
:104DF0001AE0B9F1000F05D12846FFF7A0FF504592
:104E000000D118E04FF0FF094FF6FF702084A06931
:104E1000C07A00F0010030B90B222846A169FFF7E3
:104E2000C0FA00B907E0FFE700212046FFF79EFD2A
:104E30000746002FA3D000BF38469AE72DE9F05F60
:104E400004468A464FF0FF09CB4604274EE021690D
:104E50002068FFF7E9FA074607B14AE06669357846
:104E60000DB9042745E0F07A00F03F08E52D09D0A0
:104E70002E2D07D0B8F1080F01D1012000E000204D
:104E8000504502D04FF0FF0929E0B8F10F0F1AD1B9
:104E900005F0400030B196F80DB025F04005A94668
:104EA000E08820844D450AD1707B584507D13146B2
:104EB000E069FFF76EFE10B1A9F1010000E0FF20EC
:104EC00000F0FF090BE0B9F1000F04D13046FFF705
:104ED00036FF584502D04FF6FF70208409E00021CC
:104EE0002046FFF743FD074607B102E0206900288E
:104EF000ADD100BF0FB1002020613846BDE8F09F62
:104F00002DE9FE4F0446D4F81880D4F81C900C22EA
:104F100041466846FFF72EFA00BF9DF80B0000F0EF
:104F2000010003E06CE200082110010020B3002022
:104F300088F80B00E06101260CE033464A466946DA
:104F40004046FFF79BFE2046FFF709FF054605B1E7
:104F500002E0761C642EF0D300BF642E02D107203D
:104F6000BDE8FE8F042D01D02846F9E79DF80B001F
:104F700088F80B00C4F81C909DF80B0000F00200AC
:104F800060B1002600E0761C39F816000028FAD13E
:104F900006F119000D21B0FBF1F700E001273946B9
:104FA0002046FFF76BFD054645BB781E071E25D042
:104FB000E088C11B2046FFF78AFC0546F5B9A069C9
:104FC000FFF7BDFE824600BF21692068FFF72CFA7B
:104FD000054605B111E0FAB253466169E069FFF791
:104FE00010FE01202168087100212046FFF7BEFC59
:104FF000054615B9781E071EE6D100BFC5B921695F
:105000002068FFF711FA054695B920220021606952
:10501000FFF7BDF90B22D4E90501FFF7ABF9A06951
:10502000C07A00F0180061690873012021680871D6
:10503000284695E770B50446E688208C4FF6FF7247
:10504000904201D1304600E0208C01462046FFF717
:105050003EFC05460DBB00BF21692068FFF7E4F95F
:10506000054605B115E0202200216069FFF78FF9A0
:10507000E52061690870012021680871E088B0426C
:1050800000D306E000212046FFF770FC0546002D06
:10509000E2D000BF042D00D10225284670BD2DE9C5
:1050A000F04707460C4604F109063869002843D04A
:1050B0007869002526E029466D1C10F80180B8F1BA
:1050C000200F00D11EE0B8F1050F01D14FF0E50827
:1050D000092D02D12E2106F8011BB8F1410F0EDB7C
:1050E000B8F15A0F0BDC017B092D01D3102200E02F
:1050F0000822114019B108F1200101F0FF0806F85B
:10510000018B00BF0B2DD6D3C17A2172C17F0A0655
:10511000817F42EA0142417F42EA0121027F11433D
:105120002160027E417E42EA0121A180827DC17D13
:1051300042EA0121E18000BF00203070A06990B3F5
:105140000025A669386958B3E06948B3388C4FF632
:10515000FF71884224D0D7F81CA01BE000214846EC
:1051600002F020FB8146B9F1000F01D1002516E0C5
:10517000B9F1FF0F04DD4FEA292228466D1C325495
:10518000E069401EA84201D8002508E028466D1CB1
:1051900006F800903AF8021BB1F10009DED100BF19
:1051A0000020705500BFBDE8F0872DE9F34F83B0B4
:1051B000814604980068019002E00198401C01902B
:1051C000019800782F28F8D0019800785C28F4D056
:1051D000D9F81CA000252F4600BF38467F1C019936
:1051E0000C5C202C03DB2F2C01D05C2C00D132E096
:1051F000FF2D03D3062005B0BDE8F08FE4B2812C6B
:1052000013DBE0B2FE2810DC38467F1C01990E5CEF
:10521000402E01DB7E2E05DD802E01DBFE2E01DD22
:105220000620E8E706EB042084B20121204602F0C4
:10523000B9FA04460CB90620DDE7802C06DA2146CF
:10524000F9A0FFF7C1F808B10620D4E728466D1C85
:105250002AF81040C1E700BF0198C1190498016005
:10526000202C01DA042000E00020804608E0681EBF
:105270003AF81040202C02D02E2C00D002E06D1EF7
:10528000002DF4D100BF0DB90620B4E700202AF8A4
:1052900015000B222021D9F81800FFF778F8002715
:1052A00000E07F1C3AF817002028FAD03AF81700DF
:1052B0002E28F6D00FB148F0030800E06D1E25B18E
:1052C000681E3AF810002E28F8D1002006460290F9
:1052D0004FF0080B00BF38467F1C3AF8104004B965
:1052E00063E0202C03D02E2C04D1AF4202D048F032
:1052F0000308F0E70298584501D2AF4214D1BBF140
:105300000B0F02D148F003084FE0AF4201D048F044
:105310000308AF4200D948E02F46082002904FF022
:105320000B0BB006060ED6E7802C09DB204602F0F8
:1053300071FA0021009002F035FA044648F00208A4
:10534000FF2C11DDABF101000299884204D848F02E
:105350000308CDF808B0BEE72212D9F81830029839
:10536000411C02911A5419E024B12146B1A0FFF763
:105370002BF818B15F2448F003080FE0412C04DB40
:105380005A2C02DC46F0020608E0612C06DB7A2C7F
:1053900004DC46F00106A4F1200084B2D9F81830EC
:1053A0000298411C02911C5495E700BFD9F81800DF
:1053B0000078E52803D10520D9F818100870BBF152
:1053C000080F01D1B006060E06F00C000C2803D021
:1053D00006F00300032801D148F0020808F002009B
:1053E00058B906F00300012801D148F0100806F072
:1053F0000C00042801D148F00808D9F8180080F8FA
:105400000B800020F7E62DE9F3410446019800786F
:105410002F2803D0019800785C2802D10198401C05
:1054200001900020A06001980078202807D2002178
:105430002046FFF74CFA05460020606128E000BFD7
:1054400001A92046FFF7B1FE054605B11FE0204641
:10545000FFF785FC0546A069C67A3DB1042D04D14D
:1054600000BF06F0040000B9052510E006F00400B6
:1054700000B10CE06769F87A00F0100008B9052562
:1054800005E039462068FFF727FBA060D8E700BF9A
:105490002846BDE8FC8170B502464FF0FF30156824
:1054A000E5B1116800E0491C0D78202D02D30D787C
:1054B0003A2DF8D10D783A2D0FD1146814F8015B0C
:1054C000A5F130030A2B07D28C4205D1022B03D25F
:1054D00018464D1C2946156070BD002000BFFBE733
:1054E00070B504460D4600202071401EE06229463A
:1054F0002046FEF799FF08B1032070BD94F82E12E4
:1055000094F82F0241EA00204AF65521884201D042
:105510000220F2E794F86900010694F8680041EA75
:10552000004194F8670041EA002094F866100843AF
:1055300020F07F404149884201D10020DDE794F806
:105540008500010694F8840041EA004194F8830044
:1055500041EA002094F88210084320F07F40374948
:10556000884201D10020C8E70120C6E72DE9F74FA6
:1055700088B00021089801600998FFF78CFF079018
:105580000798002803DA0B200BB0BDE8F08F2C49F8
:10559000079851F820400CB90C20F5E708980460F2
:1055A000207878B16078FEF715FE804608F001009B
:1055B00040B90A9820B108F0040008B10A20E3E7D6
:1055C0000020E1E700202070079860706078FEF707
:1055D000D5FD804608F0010008B10320D4E70A9801
:1055E00020B108F0040008B10A20CDE700273946B1
:1055F0002046FFF775FF0546012D01D09DB93BE020
:10560000002623E004F5F77101EB06100179C9B11A
:10561000C17A0A06817A42EA0142417A42EA0121CC
:10562000027A11430FE027E0222A3A3C3E3F7C7F7A
:10563000000000002B2C3B3D5B5D00004641540008
:105640007C00002000214DF82610761C042ED9D3B2
:10565000002606B1761E00BF5DF8267027B13946D8
:105660002046FFF73DFF00E0022005461DB1701CFB
:1056700006460428F0D300BF032D01D1012083E7A3
:105680000DB10D2080E73B20015D94F83C0041EA1C
:105690000020B0F5007F01D00D2075E74620015DA8
:1056A00094F8470041EA0029B9F1000F0ED194F8AF
:1056B0005700010694F8560041EA004194F855005D
:1056C00041EA002094F8541040EA0109C4F8189007
:1056D0004020005DE070E078012804D0E0780228E6
:1056E00001D00D2050E7E07809FB00F93D20005D76
:1056F000A070A07818B1A078411E084008B10D2014
:1057000042E74120015D94F8420041EA00202081F7
:10571000207A00F00F0008B10D2035E74320015D2D
:1057200094F8440041EA002BBBF1000F0ED194F82D
:105730005300010694F8520041EA004194F85100E8
:1057400041EA002094F8501040EA010B3E20015D30
:1057500094F83F0041EA00200490049808B90D2015
:1057600012E704984844218900EB1110069006982E
:10577000834501D20D2007E70698ABEB0000A17826
:10578000B0FBF1FABAF1000F01D10D20FCE60125C2
:1057900040F6F670824500D302254FF6F67082453A
:1057A00000D303250AF102006061E76104983844E0
:1057B000206206983844A062032D16D1208908B1D2
:1057C0000D20E1E694F85F00010694F85E0041EADE
:1057D000004194F85D0041EA002094F85C10084311
:1057E000606260698000059014E0208908B90D208E
:1057F000CAE6206A48446062022D02D16069400016
:1058000007E0207D00F00100616901EB410100EB40
:1058100051000590A169059800F2FF10B1EB502FDF
:1058200001D20D20B0E64FF0FF302061E060802013
:105830006071032D5AD194F8601094F8610041EA28
:105840000020012852D1791C2046FEF7EDFDE8BB6F
:105850000020607194F82E1294F82F0241EA002083
:105860004AF65521884241D13320005D010632209D
:10587000005D41EA00413120005D41EA002094F8DA
:1058800030100843FC49884230D194F817020106D1
:1058900094F8160241EA004194F8150241EA00200A
:1058A00094F814120843F54988421FD194F81B025A
:1058B000010694F81A0241EA004194F8190241EAFB
:1058C000002094F818120843206100E00EE094F8DC
:1058D0001F02010694F81E0241EA004194F81D02DD
:1058E00041EA002094F81C120843E0602570E44867
:1058F0000088401C80B2E2490880E080002043E636
:1059000070B505462C464CB1206838B12068007847
:1059100020B12068C088A188884201D0092070BDCC
:1059200021684878FEF756FC00F0010008B103201A
:10593000F5E70020F3E7F7B582B01646039801902B
:1059400001A8FFF7A8FD0546002D02DA0B2005B0DF
:10595000F0BDCC4850F825400CB1002020700298D2
:1059600010B1002002990870C649029841F825003C
:10597000029808B1012E01D00020E8E7002203A917
:1059800002A8FFF7F3FD07463846E0E72DE9F747A1
:105990008DB0054616461DB9092010B0BDE8F08748
:1059A0000020286006F01F0626F001020EA904A8B8
:1059B000FFF7DCFD0746002F73D14FF40070FEF7B0
:1059C000C7FC8146B9F1000F01D11120E5E7CDF800
:1059D0002C9001A80A9004A80E99FFF714FD074621
:1059E000099C0FB904B9062706F01C00002851D005
:1059F0004FB1042F03D104A8FFF782FA074646F0FF
:105A00000806099C09E0E07A00F0110008B10727B8
:105A100003E006F0040000B10827002F39D106F09A
:105A20000800002835D0FEF791FC804684F80E80EF
:105A30004FEA1821E1734FEA184121744FEA1861C7
:105A400061740020E072207700216177A177E1770F
:105A500021460498FFF740F8824600212046FFF7D0
:105A60004BF8012004990871BAF1000F11D0049885
:105A7000D0F82C8051460498FEF76FFE074647B9D0
:105A8000AAF101000499C86041460498FEF7CCFCD5
:105A900007460FE077B9E07A00F0100010B1042754
:105AA00008E031E006F0020020B1E07A00F00100E9
:105AB00000B1072747B906F0080008B146F02006F4
:105AC0000498C06AE8612C624846FEF747FCDFB9DB
:105AD000AE710020E87121460498FEF7FDFF2861B1
